{
  "contractName": "Marketplace",
  "abi": [
    {
      "inputs": [],
      "payable": false,
      "stateMutability": "nonpayable",
      "type": "constructor"
    },
    {
      "anonymous": false,
      "inputs": [
        {
          "indexed": false,
          "internalType": "address",
          "name": "",
          "type": "address"
        }
      ],
      "name": "LogAddress",
      "type": "event"
    },
    {
      "anonymous": false,
      "inputs": [
        {
          "indexed": false,
          "internalType": "uint256",
          "name": "sku",
          "type": "uint256"
        }
      ],
      "name": "LogForSale",
      "type": "event"
    },
    {
      "anonymous": false,
      "inputs": [
        {
          "indexed": false,
          "internalType": "uint256",
          "name": "sku",
          "type": "uint256"
        }
      ],
      "name": "LogReceived",
      "type": "event"
    },
    {
      "anonymous": false,
      "inputs": [
        {
          "indexed": false,
          "internalType": "uint256",
          "name": "sku",
          "type": "uint256"
        }
      ],
      "name": "LogShipped",
      "type": "event"
    },
    {
      "anonymous": false,
      "inputs": [
        {
          "indexed": false,
          "internalType": "uint256",
          "name": "sku",
          "type": "uint256"
        }
      ],
      "name": "LogSold",
      "type": "event"
    },
    {
      "constant": true,
      "inputs": [
        {
          "internalType": "uint256",
          "name": "",
          "type": "uint256"
        }
      ],
      "name": "items",
      "outputs": [
        {
          "internalType": "string",
          "name": "name",
          "type": "string"
        },
        {
          "internalType": "uint256",
          "name": "sku",
          "type": "uint256"
        },
        {
          "internalType": "uint256",
          "name": "price",
          "type": "uint256"
        },
        {
          "internalType": "enum Marketplace.State",
          "name": "state",
          "type": "uint8"
        },
        {
          "internalType": "address payable",
          "name": "seller",
          "type": "address"
        },
        {
          "internalType": "address payable",
          "name": "buyer",
          "type": "address"
        }
      ],
      "payable": false,
      "stateMutability": "view",
      "type": "function"
    },
    {
      "constant": false,
      "inputs": [
        {
          "internalType": "string",
          "name": "_name",
          "type": "string"
        },
        {
          "internalType": "uint256",
          "name": "_price",
          "type": "uint256"
        }
      ],
      "name": "addItem",
      "outputs": [
        {
          "internalType": "bool",
          "name": "",
          "type": "bool"
        }
      ],
      "payable": false,
      "stateMutability": "nonpayable",
      "type": "function"
    },
    {
      "constant": false,
      "inputs": [
        {
          "internalType": "uint256",
          "name": "sku",
          "type": "uint256"
        }
      ],
      "name": "buyItem",
      "outputs": [],
      "payable": true,
      "stateMutability": "payable",
      "type": "function"
    },
    {
      "constant": false,
      "inputs": [
        {
          "internalType": "uint256",
          "name": "sku",
          "type": "uint256"
        }
      ],
      "name": "shipItem",
      "outputs": [],
      "payable": false,
      "stateMutability": "nonpayable",
      "type": "function"
    },
    {
      "constant": false,
      "inputs": [
        {
          "internalType": "uint256",
          "name": "sku",
          "type": "uint256"
        }
      ],
      "name": "receiveItem",
      "outputs": [],
      "payable": false,
      "stateMutability": "nonpayable",
      "type": "function"
    },
    {
      "constant": true,
      "inputs": [
        {
          "internalType": "uint256",
          "name": "_sku",
          "type": "uint256"
        }
      ],
      "name": "fetchItem",
      "outputs": [
        {
          "internalType": "string",
          "name": "name",
          "type": "string"
        },
        {
          "internalType": "uint256",
          "name": "sku",
          "type": "uint256"
        },
        {
          "internalType": "uint256",
          "name": "price",
          "type": "uint256"
        },
        {
          "internalType": "uint256",
          "name": "state",
          "type": "uint256"
        },
        {
          "internalType": "address",
          "name": "seller",
          "type": "address"
        },
        {
          "internalType": "address",
          "name": "buyer",
          "type": "address"
        }
      ],
      "payable": false,
      "stateMutability": "view",
      "type": "function"
    },
    {
      "constant": false,
      "inputs": [],
      "name": "getCount",
      "outputs": [
        {
          "internalType": "uint256",
          "name": "sku",
          "type": "uint256"
        }
      ],
      "payable": false,
      "stateMutability": "nonpayable",
      "type": "function"
    }
  ],
  "bytecode": "0x608060405234801561001057600080fd5b50336000806101000a81548173ffffffffffffffffffffffffffffffffffffffff021916908373ffffffffffffffffffffffffffffffffffffffff1602179055506000600181905550611064806100686000396000f3fe6080604052600436106100705760003560e01c8063ad4b9cfb1161004e578063ad4b9cfb146101c5578063bfb231d2146102f4578063e7fb74c714610431578063f61c899a1461045f57610070565b806362d6bbdf14610075578063a26be9991461015f578063a87d942c1461019a575b600080fd5b34801561008157600080fd5b506101456004803603604081101561009857600080fd5b81019080803590602001906401000000008111156100b557600080fd5b8201836020820111156100c757600080fd5b803590602001918460018302840111640100000000831117156100e957600080fd5b91908080601f016020809104026020016040519081016040528093929190818152602001838380828437600081840152601f19601f8201169050808301925050505050505091929192908035906020019092919050505061049a565b604051808215151515815260200191505060405180910390f35b34801561016b57600080fd5b506101986004803603602081101561018257600080fd5b8101908080359060200190929190505050610657565b005b3480156101a657600080fd5b506101af610781565b6040518082815260200191505060405180910390f35b3480156101d157600080fd5b506101fe600480360360208110156101e857600080fd5b810190808035906020019092919050505061078b565b60405180806020018781526020018681526020018581526020018473ffffffffffffffffffffffffffffffffffffffff1673ffffffffffffffffffffffffffffffffffffffff1681526020018373ffffffffffffffffffffffffffffffffffffffff1673ffffffffffffffffffffffffffffffffffffffff168152602001828103825288818151815260200191508051906020019080838360005b838110156102b4578082015181840152602081019050610299565b50505050905090810190601f1680156102e15780820380516001836020036101000a031916815260200191505b5097505050505050505060405180910390f35b34801561030057600080fd5b5061032d6004803603602081101561031757600080fd5b8101908080359060200190929190505050610936565b604051808060200187815260200186815260200185600381111561034d57fe5b60ff1681526020018473ffffffffffffffffffffffffffffffffffffffff1673ffffffffffffffffffffffffffffffffffffffff1681526020018373ffffffffffffffffffffffffffffffffffffffff1673ffffffffffffffffffffffffffffffffffffffff168152602001828103825288818151815260200191508051906020019080838360005b838110156103f15780820151818401526020810190506103d6565b50505050905090810190601f16801561041e5780820380516001836020036101000a031916815260200191505b5097505050505050505060405180910390f35b61045d6004803603602081101561044757600080fd5b8101908080359060200190929190505050610a57565b005b34801561046b57600080fd5b506104986004803603602081101561048257600080fd5b8101908080359060200190929190505050610e61565b005b60007f4627c48065af2a9648cbecdd4b9da340c00e501243cd49a8a71c30c987e8b7616001546040518082815260200191505060405180910390a16040518060c0016040528084815260200160015481526020018381526020016000600381111561050157fe5b81526020013373ffffffffffffffffffffffffffffffffffffffff168152602001600073ffffffffffffffffffffffffffffffffffffffff16815250600260006001548152602001908152602001600020600082015181600001908051906020019061056e929190610f8a565b50602082015181600101556040820151816002015560608201518160030160006101000a81548160ff021916908360038111156105a757fe5b021790555060808201518160030160016101000a81548173ffffffffffffffffffffffffffffffffffffffff021916908373ffffffffffffffffffffffffffffffffffffffff16021790555060a08201518160040160006101000a81548173ffffffffffffffffffffffffffffffffffffffff021916908373ffffffffffffffffffffffffffffffffffffffff160217905550905050600180600082825401925050819055506001905092915050565b806002600381111561066557fe5b6002600083815260200190815260200160002060030160009054906101000a900460ff16600381111561069457fe5b1461069e57600080fd5b6002600083815260200190815260200160002060040160009054906101000a900473ffffffffffffffffffffffffffffffffffffffff168073ffffffffffffffffffffffffffffffffffffffff163373ffffffffffffffffffffffffffffffffffffffff161461070d57600080fd5b60036002600085815260200190815260200160002060030160006101000a81548160ff0219169083600381111561074057fe5b02179055507f5a98827d06afe0e04647b3aed26f1ffb77171ad9ac41603c4ef623a6638798c1836040518082815260200191505060405180910390a1505050565b6000600154905090565b60606000806000806000600260008881526020019081526020016000206000018054600181600116156101000203166002900480601f01602080910402602001604051908101604052809291908181526020018280546001816001161561010002031660029004801561083f5780601f106108145761010080835404028352916020019161083f565b820191906000526020600020905b81548152906001019060200180831161082257829003601f168201915b5050505050955060026000888152602001908152602001600020600101549450600260008881526020019081526020016000206002015493506002600088815260200190815260200160002060030160009054906101000a900460ff1660038111156108a757fe5b92506002600088815260200190815260200160002060030160019054906101000a900473ffffffffffffffffffffffffffffffffffffffff1691506002600088815260200190815260200160002060040160009054906101000a900473ffffffffffffffffffffffffffffffffffffffff16905085858585858595509550955095509550955091939550919395565b6002602052806000526040600020600091509050806000018054600181600116156101000203166002900480601f0160208091040260200160405190810160405280929190818152602001828054600181600116156101000203166002900480156109e25780601f106109b7576101008083540402835291602001916109e2565b820191906000526020600020905b8154815290600101906020018083116109c557829003601f168201915b5050505050908060010154908060020154908060030160009054906101000a900460ff16908060030160019054906101000a900473ffffffffffffffffffffffffffffffffffffffff16908060040160009054906101000a900473ffffffffffffffffffffffffffffffffffffffff16905086565b8060006003811115610a6557fe5b6002600083815260200190815260200160002060030160009054906101000a900460ff166003811115610a9457fe5b148015610b035750600073ffffffffffffffffffffffffffffffffffffffff166002600083815260200190815260200160002060040160009054906101000a900473ffffffffffffffffffffffffffffffffffffffff1673ffffffffffffffffffffffffffffffffffffffff16145b610b0c57600080fd5b600260008381526020019081526020016000206002015480341015610b3057600080fd5b82336002600086815260200190815260200160002060040160006101000a81548173ffffffffffffffffffffffffffffffffffffffff021916908373ffffffffffffffffffffffffffffffffffffffff1602179055506002600085815260200190815260200160002060030160019054906101000a900473ffffffffffffffffffffffffffffffffffffffff1673ffffffffffffffffffffffffffffffffffffffff166108fc60026000878152602001908152602001600020600201549081150290604051600060405180830381858888f19350505050158015610c18573d6000803e3d6000fd5b5060016002600086815260200190815260200160002060030160006101000a81548160ff02191690836003811115610c4c57fe5b02179055507fe64ca8c671e48636f85f3008c1dd538e36bfa74fb6f2790b56b72fcc33b879ef846040518082815260200191505060405180910390a17fb123f68b8ba02b447d91a6629e121111b7dd6061ff418a60139c8bf00522a2846002600086815260200190815260200160002060040160009054906101000a900473ffffffffffffffffffffffffffffffffffffffff16604051808273ffffffffffffffffffffffffffffffffffffffff1673ffffffffffffffffffffffffffffffffffffffff16815260200191505060405180910390a17fb123f68b8ba02b447d91a6629e121111b7dd6061ff418a60139c8bf00522a2846002600086815260200190815260200160002060030160019054906101000a900473ffffffffffffffffffffffffffffffffffffffff16604051808273ffffffffffffffffffffffffffffffffffffffff1673ffffffffffffffffffffffffffffffffffffffff16815260200191505060405180910390a1600060026000838152602001908152602001600020600201549050600081340390506002600084815260200190815260200160002060040160009054906101000a900473ffffffffffffffffffffffffffffffffffffffff1673ffffffffffffffffffffffffffffffffffffffff166108fc829081150290604051600060405180830381858888f19350505050158015610e58573d6000803e3d6000fd5b50505050505050565b8060016003811115610e6f57fe5b6002600083815260200190815260200160002060030160009054906101000a900460ff166003811115610e9e57fe5b14610ea857600080fd5b6002600083815260200190815260200160002060030160019054906101000a900473ffffffffffffffffffffffffffffffffffffffff168073ffffffffffffffffffffffffffffffffffffffff163373ffffffffffffffffffffffffffffffffffffffff1614610f1757600080fd5b600280600085815260200190815260200160002060030160006101000a81548160ff02191690836003811115610f4957fe5b02179055507feaf695929fec8154f0eafe7248c0e16855eb9ad09e623be92f669e544d53e856836040518082815260200191505060405180910390a1505050565b828054600181600116156101000203166002900490600052602060002090601f016020900481019282601f10610fcb57805160ff1916838001178555610ff9565b82800160010185558215610ff9579182015b82811115610ff8578251825591602001919060010190610fdd565b5b509050611006919061100a565b5090565b61102c91905b80821115611028576000816000905550600101611010565b5090565b9056fea265627a7a723158206870f7cfd29dc76071b8e7c595693a068de32f1035f9177d3689ee8ef0f9b1eb64736f6c63430005100032",
  "source": "pragma solidity >=0.4.21 <0.7.0;\n\ncontract Marketplace {\n\n  address owner;\n  uint skuCount;\n  /* uint id; */\n  mapping (uint => Item) public items;\n\n  enum State {\n    ForSale,\n    Sold,\n    Shipped,\n    Received\n  }\n\n  struct Item {\n    string name;\n    uint sku;\n    uint price;\n    // price in cents\n    State state;\n    address payable seller;\n    address payable buyer;\n  }\n\n    event LogForSale(uint sku);\n    event LogSold(uint sku);\n    event LogShipped(uint sku);\n    event LogReceived(uint sku);\n    event LogAddress(address);\n\n\n  modifier verifyCaller (address _address) { require (msg.sender == _address); _;}\n  modifier paidEnough(uint _price) { require(msg.value >= _price); _;}\n  modifier checkValue(uint _sku) {\n    //refund them after pay for item (why it is before, _ checks for logic before func)\n    _;\n    uint _price = items[_sku].price;\n    uint amountToRefund = msg.value - _price;\n    items[_sku].buyer.transfer(amountToRefund);\n  }\n\n\n  modifier forSale(uint _sku) { require(items[_sku].state == State.ForSale && items[_sku].buyer == address(0)); _;}\n  modifier sold(uint _sku) { require(items[_sku].state == State.Sold); _;}\n  modifier shipped(uint _sku) { require(items[_sku].state == State.Shipped); _;}\n  modifier received(uint _sku) { require(items[_sku].state == State.Received); _;}\n\n  constructor() public {\n    /* Here, set the owner as the person who instantiated the contract\n       and set your skuCount to 0. */\n    owner = msg.sender;\n    skuCount = 0;\n    /* id = 1001; */\n  }\n\n  function addItem(string memory _name, uint _price) public returns(bool){\n    emit LogForSale(skuCount);\n    items[skuCount] = Item({name: _name, sku: skuCount, price: _price, state: State.ForSale, seller: msg.sender, buyer: address(0)});\n    skuCount += 1;\n    /* id += 1; */\n    // Replace items[skuCount] with items[id] to use id\n    return true;\n  }\n\n  function buyItem(uint sku)\n    public payable forSale(sku) paidEnough(items[sku].price) checkValue(sku)\n  {\n    // set buyer as caller of transaction\n    items[sku].buyer = msg.sender;\n    // transfer money to seller (from contract)\n    items[sku].seller.transfer(items[sku].price);\n    // same as sendTransaction({from: buyer, to: seller, value: items[sku].price})\n    // set state to sold\n    items[sku].state = State.Sold;\n    emit LogSold(sku);\n    emit LogAddress(items[sku].buyer);\n    emit LogAddress(items[sku].seller);\n  }\n\n  function shipItem(uint sku)\n    public sold(sku) verifyCaller(items[sku].seller)\n  {\n    items[sku].state = State.Shipped;\n    emit LogShipped(sku);\n  }\n\n  function receiveItem(uint sku)\n    public shipped(sku) verifyCaller(items[sku].buyer)\n  {\n    items[sku].state = State.Received;\n    emit LogReceived(sku);\n  }\n\n  /* We have these functions completed so we can run tests, just ignore it :) */\n\n  function fetchItem(uint _sku) public view returns (string memory name, uint sku, uint price, uint state, address seller, address buyer) {\n    name = items[_sku].name;\n    sku = items[_sku].sku;\n    price = items[_sku].price;\n    state = uint(items[_sku].state);\n    seller = items[_sku].seller;\n    buyer = items[_sku].buyer;\n    return (name, sku, price, state, seller, buyer);\n  }\n\n  function getCount() public returns (uint sku){\n    return skuCount;\n  }\n\n}\n",
  "sourcePath": "/home/gerwin/code/gerwinf/blockchain-bootcamp/supply-chain-deployed/contracts/Marketplace.sol",
  "compiler": {
    "name": "solc",
    "version": "0.5.16+commit.9c3226ce.Emscripten.clang"
  },
  "schemaVersion": "3.2.5",
  "updatedAt": "2020-11-21T17:46:26.858Z",
  "networkType": "ethereum",
  "devdoc": {
    "methods": {}
  },
  "userdoc": {
    "methods": {}
  }
}