{
  "contractName": "Marketplace",
  "abi": [
    {
      "inputs": [],
      "stateMutability": "nonpayable",
      "type": "constructor"
    },
    {
      "anonymous": false,
      "inputs": [
        {
          "indexed": false,
          "internalType": "address",
          "name": "",
          "type": "address"
        }
      ],
      "name": "LogAddressBuyer",
      "type": "event"
    },
    {
      "anonymous": false,
      "inputs": [
        {
          "indexed": false,
          "internalType": "address",
          "name": "",
          "type": "address"
        }
      ],
      "name": "LogAddressSeller",
      "type": "event"
    },
    {
      "anonymous": false,
      "inputs": [
        {
          "indexed": false,
          "internalType": "uint256",
          "name": "id",
          "type": "uint256"
        }
      ],
      "name": "LogForSale",
      "type": "event"
    },
    {
      "anonymous": false,
      "inputs": [
        {
          "indexed": false,
          "internalType": "uint256",
          "name": "id",
          "type": "uint256"
        }
      ],
      "name": "LogSold",
      "type": "event"
    },
    {
      "inputs": [
        {
          "internalType": "uint256",
          "name": "",
          "type": "uint256"
        }
      ],
      "name": "products",
      "outputs": [
        {
          "internalType": "uint256",
          "name": "id",
          "type": "uint256"
        },
        {
          "internalType": "string",
          "name": "name",
          "type": "string"
        },
        {
          "internalType": "uint256",
          "name": "price",
          "type": "uint256"
        },
        {
          "internalType": "enum Marketplace.State",
          "name": "state",
          "type": "uint8"
        },
        {
          "internalType": "address payable",
          "name": "seller",
          "type": "address"
        },
        {
          "internalType": "address payable",
          "name": "buyer",
          "type": "address"
        }
      ],
      "stateMutability": "view",
      "type": "function",
      "constant": true
    },
    {
      "inputs": [],
      "name": "getCount",
      "outputs": [
        {
          "internalType": "uint256",
          "name": "id",
          "type": "uint256"
        }
      ],
      "stateMutability": "view",
      "type": "function",
      "constant": true
    },
    {
      "inputs": [
        {
          "internalType": "string",
          "name": "_name",
          "type": "string"
        },
        {
          "internalType": "uint256",
          "name": "_price",
          "type": "uint256"
        }
      ],
      "name": "addProduct",
      "outputs": [
        {
          "internalType": "bool",
          "name": "",
          "type": "bool"
        }
      ],
      "stateMutability": "nonpayable",
      "type": "function"
    },
    {
      "inputs": [
        {
          "internalType": "uint256",
          "name": "id",
          "type": "uint256"
        }
      ],
      "name": "buyProduct",
      "outputs": [],
      "stateMutability": "payable",
      "type": "function",
      "payable": true
    },
    {
      "inputs": [
        {
          "internalType": "uint256",
          "name": "_id",
          "type": "uint256"
        }
      ],
      "name": "fetchProduct",
      "outputs": [
        {
          "internalType": "string",
          "name": "name",
          "type": "string"
        },
        {
          "internalType": "uint256",
          "name": "id",
          "type": "uint256"
        },
        {
          "internalType": "uint256",
          "name": "price",
          "type": "uint256"
        },
        {
          "internalType": "uint256",
          "name": "state",
          "type": "uint256"
        },
        {
          "internalType": "address",
          "name": "seller",
          "type": "address"
        },
        {
          "internalType": "address",
          "name": "buyer",
          "type": "address"
        }
      ],
      "stateMutability": "view",
      "type": "function",
      "constant": true
    }
  ],
  "bytecode": "0x608060405234801561001057600080fd5b50336000806101000a81548173ffffffffffffffffffffffffffffffffffffffff021916908373ffffffffffffffffffffffffffffffffffffffff1602179055506000600181905550610cd3806100686000396000f3fe60806040526004361061004a5760003560e01c80630cb28a531461004f5780637acc0b20146101525780638642269e14610260578063a87d942c1461028e578063b15247d9146102b9575b600080fd5b34801561005b57600080fd5b506100886004803603602081101561007257600080fd5b81019080803590602001909291905050506103a1565b60405180806020018781526020018681526020018581526020018473ffffffffffffffffffffffffffffffffffffffff1681526020018373ffffffffffffffffffffffffffffffffffffffff168152602001828103825288818151815260200191508051906020019080838360005b838110156101125780820151818401526020810190506100f7565b50505050905090810190601f16801561013f5780820380516001836020036101000a031916815260200191505b5097505050505050505060405180910390f35b34801561015e57600080fd5b5061018b6004803603602081101561017557600080fd5b810190808035906020019092919050505061053a565b60405180878152602001806020018681526020018560018111156101ab57fe5b81526020018473ffffffffffffffffffffffffffffffffffffffff1681526020018373ffffffffffffffffffffffffffffffffffffffff168152602001828103825287818151815260200191508051906020019080838360005b83811015610220578082015181840152602081019050610205565b50505050905090810190601f16801561024d5780820380516001836020036101000a031916815260200191505b5097505050505050505060405180910390f35b61028c6004803603602081101561027657600080fd5b810190808035906020019092919050505061065b565b005b34801561029a57600080fd5b506102a3610a39565b6040518082815260200191505060405180910390f35b3480156102c557600080fd5b50610389600480360360408110156102dc57600080fd5b81019080803590602001906401000000008111156102f957600080fd5b82018360208201111561030b57600080fd5b8035906020019184600183028401116401000000008311171561032d57600080fd5b91908080601f016020809104026020016040519081016040528093929190818152602001838380828437600081840152601f19601f82011690508083019250505050505050919291929080359060200190929190505050610a43565b60405180821515815260200191505060405180910390f35b60606000806000806000600260008881526020019081526020016000206001018054600181600116156101000203166002900480601f0160208091040260200160405190810160405280929190818152602001828054600181600116156101000203166002900480156104555780601f1061042a57610100808354040283529160200191610455565b820191906000526020600020905b81548152906001019060200180831161043857829003601f168201915b5050505050955060026000888152602001908152602001600020600001549450600260008881526020019081526020016000206002015493506002600088815260200190815260200160002060030160009054906101000a900460ff1660018111156104bd57fe5b92506002600088815260200190815260200160002060030160019054906101000a900473ffffffffffffffffffffffffffffffffffffffff1691506002600088815260200190815260200160002060040160009054906101000a900473ffffffffffffffffffffffffffffffffffffffff16905091939550919395565b6002602052806000526040600020600091509050806000015490806001018054600181600116156101000203166002900480601f0160208091040260200160405190810160405280929190818152602001828054600181600116156101000203166002900480156105ec5780601f106105c1576101008083540402835291602001916105ec565b820191906000526020600020905b8154815290600101906020018083116105cf57829003601f168201915b5050505050908060020154908060030160009054906101000a900460ff16908060030160019054906101000a900473ffffffffffffffffffffffffffffffffffffffff16908060040160009054906101000a900473ffffffffffffffffffffffffffffffffffffffff16905086565b806000600181111561066957fe5b6002600083815260200190815260200160002060030160009054906101000a900460ff16600181111561069857fe5b1480156107075750600073ffffffffffffffffffffffffffffffffffffffff166002600083815260200190815260200160002060040160009054906101000a900473ffffffffffffffffffffffffffffffffffffffff1673ffffffffffffffffffffffffffffffffffffffff16145b61071057600080fd5b60026000838152602001908152602001600020600201548034101561073457600080fd5b82336002600086815260200190815260200160002060040160006101000a81548173ffffffffffffffffffffffffffffffffffffffff021916908373ffffffffffffffffffffffffffffffffffffffff1602179055506002600085815260200190815260200160002060030160019054906101000a900473ffffffffffffffffffffffffffffffffffffffff1673ffffffffffffffffffffffffffffffffffffffff166108fc60026000878152602001908152602001600020600201549081150290604051600060405180830381858888f1935050505015801561081c573d6000803e3d6000fd5b5060016002600086815260200190815260200160002060030160006101000a81548160ff0219169083600181111561085057fe5b02179055507fe64ca8c671e48636f85f3008c1dd538e36bfa74fb6f2790b56b72fcc33b879ef846040518082815260200191505060405180910390a17fb976aeccefd470f33e140ba228f02888030a51b987c21807791c1770a3bb58a56002600086815260200190815260200160002060040160009054906101000a900473ffffffffffffffffffffffffffffffffffffffff16604051808273ffffffffffffffffffffffffffffffffffffffff16815260200191505060405180910390a17fc1a3dd7d3372fb5581befbfec830c5f181944d2d4a6a270427340305903f0f0b6002600086815260200190815260200160002060030160019054906101000a900473ffffffffffffffffffffffffffffffffffffffff16604051808273ffffffffffffffffffffffffffffffffffffffff16815260200191505060405180910390a1600060026000838152602001908152602001600020600201549050600081340390506002600084815260200190815260200160002060040160009054906101000a900473ffffffffffffffffffffffffffffffffffffffff1673ffffffffffffffffffffffffffffffffffffffff166108fc829081150290604051600060405180830381858888f19350505050158015610a30573d6000803e3d6000fd5b50505050505050565b6000600154905090565b60007f4627c48065af2a9648cbecdd4b9da340c00e501243cd49a8a71c30c987e8b7616001546040518082815260200191505060405180910390a16040518060c00160405280600154815260200184815260200183815260200160006001811115610aaa57fe5b81526020013373ffffffffffffffffffffffffffffffffffffffff168152602001600073ffffffffffffffffffffffffffffffffffffffff16815250600260006001548152602001908152602001600020600082015181600001556020820151816001019080519060200190610b21929190610c00565b506040820151816002015560608201518160030160006101000a81548160ff02191690836001811115610b5057fe5b021790555060808201518160030160016101000a81548173ffffffffffffffffffffffffffffffffffffffff021916908373ffffffffffffffffffffffffffffffffffffffff16021790555060a08201518160040160006101000a81548173ffffffffffffffffffffffffffffffffffffffff021916908373ffffffffffffffffffffffffffffffffffffffff160217905550905050600180600082825401925050819055506001905092915050565b828054600181600116156101000203166002900490600052602060002090601f016020900481019282601f10610c4157805160ff1916838001178555610c6f565b82800160010185558215610c6f579182015b82811115610c6e578251825591602001919060010190610c53565b5b509050610c7c9190610c80565b5090565b5b80821115610c99576000816000905550600101610c81565b509056fea264697066735822122050b587867e5d02a890dedf992c9e82602e8f0f24331138d3f3455402bdb8d2a364736f6c634300060c0033",
  "immutableReferences": {},
  "source": "pragma solidity >=0.4.21 <0.7.0;\n\ncontract Marketplace {\n\n  address owner;\n  uint productCount;\n  mapping (uint => Product) public products;\n\n  struct Product {\n    uint id;\n    string name;\n    uint price;\n    State state;\n    address payable seller;\n    address payable buyer;\n  }\n\n  enum State {\n    ForSale,\n    Sold\n  }\n\n  event LogAddressSeller(address);\n  event LogAddressBuyer(address);\n  event LogForSale(uint id);\n  event LogSold(uint id);\n\n  modifier paidEnough(uint _price) { require(msg.value >= _price); _;}\n  modifier checkValue(uint _id) {\n    _;\n    uint _price = products[_id].price;\n    uint amountToRefund = msg.value - _price;\n    products[_id].buyer.transfer(amountToRefund);\n  }\n\n\n  modifier forSale(uint _id) { require(products[_id].state == State.ForSale && products[_id].buyer == address(0)); _;}\n  modifier sold(uint _id) { require(products[_id].state == State.Sold); _;}\n\n  constructor() public {\n    owner = msg.sender;\n    productCount = 0;\n  }\n\n  function getCount() public view returns (uint id) {\n    return productCount;\n  }\n\n  function addProduct(string memory _name, uint _price) public returns(bool){\n    emit LogForSale(productCount);\n    products[productCount] = Product({name: _name, id: productCount, price: _price, state: State.ForSale, seller: msg.sender, buyer: address(0)});\n    productCount += 1;\n    return true;\n  }\n\n  function buyProduct(uint id)\n    public payable forSale(id) paidEnough(products[id].price) checkValue(id)\n  {\n    products[id].buyer = msg.sender;\n    products[id].seller.transfer(products[id].price);\n    products[id].state = State.Sold;\n    emit LogSold(id);\n    emit LogAddressBuyer(products[id].buyer);\n    emit LogAddressSeller(products[id].seller);\n  }\n\n  function fetchProduct(uint _id) public view returns (string memory name, uint id, uint price, uint state, address seller, address buyer) {\n    name = products[_id].name;\n    id = products[_id].id;\n    price = products[_id].price;\n    state = uint(products[_id].state);\n    seller = products[_id].seller;\n    buyer = products[_id].buyer;\n    return (name, id, price, state, seller, buyer);\n  }\n}\n",
  "sourcePath": "/home/gerwin/code/gerwinf/simple-marketplace/contracts/Marketplace.sol",
  "compiler": {
    "name": "solc",
    "version": "0.6.12+commit.27d51765.Emscripten.clang"
  },
  "schemaVersion": "3.2.5",
  "updatedAt": "2020-11-24T15:33:47.270Z",
  "networkType": "ethereum",
  "devdoc": {
    "kind": "dev",
    "methods": {},
    "version": 1
  },
  "userdoc": {
    "kind": "user",
    "methods": {},
    "version": 1
  }
}