{
  "contractName": "Marketplace",
  "abi": [
    {
      "inputs": [],
      "stateMutability": "nonpayable",
      "type": "constructor"
    },
    {
      "anonymous": false,
      "inputs": [
        {
          "indexed": false,
          "internalType": "address",
          "name": "",
          "type": "address"
        }
      ],
      "name": "LogAddressBuyer",
      "type": "event"
    },
    {
      "anonymous": false,
      "inputs": [
        {
          "indexed": false,
          "internalType": "address",
          "name": "",
          "type": "address"
        }
      ],
      "name": "LogAddressSeller",
      "type": "event"
    },
    {
      "anonymous": false,
      "inputs": [
        {
          "indexed": false,
          "internalType": "uint256",
          "name": "id",
          "type": "uint256"
        }
      ],
      "name": "LogForSale",
      "type": "event"
    },
    {
      "anonymous": false,
      "inputs": [
        {
          "indexed": false,
          "internalType": "uint256",
          "name": "id",
          "type": "uint256"
        }
      ],
      "name": "LogSold",
      "type": "event"
    },
    {
      "inputs": [
        {
          "internalType": "uint256",
          "name": "",
          "type": "uint256"
        }
      ],
      "name": "products",
      "outputs": [
        {
          "internalType": "uint256",
          "name": "id",
          "type": "uint256"
        },
        {
          "internalType": "string",
          "name": "name",
          "type": "string"
        },
        {
          "internalType": "uint256",
          "name": "price",
          "type": "uint256"
        },
        {
          "internalType": "enum Marketplace.State",
          "name": "state",
          "type": "uint8"
        },
        {
          "internalType": "address payable",
          "name": "seller",
          "type": "address"
        },
        {
          "internalType": "address payable",
          "name": "buyer",
          "type": "address"
        }
      ],
      "stateMutability": "view",
      "type": "function",
      "constant": true
    },
    {
      "inputs": [],
      "name": "toggleCircuitBreaker",
      "outputs": [],
      "stateMutability": "nonpayable",
      "type": "function"
    },
    {
      "inputs": [],
      "name": "kill",
      "outputs": [],
      "stateMutability": "nonpayable",
      "type": "function"
    },
    {
      "inputs": [],
      "name": "getCount",
      "outputs": [
        {
          "internalType": "uint256",
          "name": "id",
          "type": "uint256"
        }
      ],
      "stateMutability": "view",
      "type": "function",
      "constant": true
    },
    {
      "inputs": [],
      "name": "getContractStatus",
      "outputs": [
        {
          "internalType": "bool",
          "name": "",
          "type": "bool"
        }
      ],
      "stateMutability": "view",
      "type": "function",
      "constant": true
    },
    {
      "inputs": [
        {
          "internalType": "string",
          "name": "_name",
          "type": "string"
        },
        {
          "internalType": "uint256",
          "name": "_price",
          "type": "uint256"
        }
      ],
      "name": "addProduct",
      "outputs": [
        {
          "internalType": "bool",
          "name": "",
          "type": "bool"
        }
      ],
      "stateMutability": "nonpayable",
      "type": "function"
    },
    {
      "inputs": [
        {
          "internalType": "uint256",
          "name": "id",
          "type": "uint256"
        }
      ],
      "name": "buyProduct",
      "outputs": [],
      "stateMutability": "payable",
      "type": "function",
      "payable": true
    },
    {
      "inputs": [
        {
          "internalType": "uint256",
          "name": "_id",
          "type": "uint256"
        }
      ],
      "name": "fetchProduct",
      "outputs": [
        {
          "internalType": "string",
          "name": "name",
          "type": "string"
        },
        {
          "internalType": "uint256",
          "name": "id",
          "type": "uint256"
        },
        {
          "internalType": "uint256",
          "name": "price",
          "type": "uint256"
        },
        {
          "internalType": "uint256",
          "name": "state",
          "type": "uint256"
        },
        {
          "internalType": "address",
          "name": "seller",
          "type": "address"
        },
        {
          "internalType": "address",
          "name": "buyer",
          "type": "address"
        }
      ],
      "stateMutability": "view",
      "type": "function",
      "constant": true
    }
  ],
  "bytecode": "0x60806040526001600360006101000a81548160ff02191690831515021790555034801561002b57600080fd5b50336000806101000a81548173ffffffffffffffffffffffffffffffffffffffff021916908373ffffffffffffffffffffffffffffffffffffffff1602179055506000600181905550611181806100836000396000f3fe60806040526004361061007b5760003560e01c8063a87d942c1161004e578063a87d942c146102d6578063b15247d914610301578063c032846b146103e9578063d5eb63cc146104165761007b565b80630cb28a531461008057806341c0e1b5146101835780637acc0b201461019a5780638642269e146102a8575b600080fd5b34801561008c57600080fd5b506100b9600480360360208110156100a357600080fd5b810190808035906020019092919050505061042d565b60405180806020018781526020018681526020018581526020018473ffffffffffffffffffffffffffffffffffffffff1681526020018373ffffffffffffffffffffffffffffffffffffffff168152602001828103825288818151815260200191508051906020019080838360005b83811015610143578082015181840152602081019050610128565b50505050905090810190601f1680156101705780820380516001836020036101000a031916815260200191505b5097505050505050505060405180910390f35b34801561018f57600080fd5b506101986105c6565b005b3480156101a657600080fd5b506101d3600480360360208110156101bd57600080fd5b8101908080359060200190929190505050610657565b60405180878152602001806020018681526020018560018111156101f357fe5b81526020018473ffffffffffffffffffffffffffffffffffffffff1681526020018373ffffffffffffffffffffffffffffffffffffffff168152602001828103825287818151815260200191508051906020019080838360005b8381101561026857808201518184015260208101905061024d565b50505050905090810190601f1680156102955780820380516001836020036101000a031916815260200191505b5097505050505050505060405180910390f35b6102d4600480360360208110156102be57600080fd5b8101908080359060200190929190505050610778565b005b3480156102e257600080fd5b506102eb610c12565b6040518082815260200191505060405180910390f35b34801561030d57600080fd5b506103d16004803603604081101561032457600080fd5b810190808035906020019064010000000081111561034157600080fd5b82018360208201111561035357600080fd5b8035906020019184600183028401116401000000008311171561037557600080fd5b91908080601f016020809104026020016040519081016040528093929190818152602001838380828437600081840152601f19601f82011690508083019250505050505050919291929080359060200190929190505050610c1c565b60405180821515815260200191505060405180910390f35b3480156103f557600080fd5b506103fe610df9565b60405180821515815260200191505060405180910390f35b34801561042257600080fd5b5061042b610e10565b005b60606000806000806000600260008881526020019081526020016000206001018054600181600116156101000203166002900480601f0160208091040260200160405190810160405280929190818152602001828054600181600116156101000203166002900480156104e15780601f106104b6576101008083540402835291602001916104e1565b820191906000526020600020905b8154815290600101906020018083116104c457829003601f168201915b5050505050955060026000888152602001908152602001600020600001549450600260008881526020019081526020016000206002015493506002600088815260200190815260200160002060030160009054906101000a900460ff16600181111561054957fe5b92506002600088815260200190815260200160002060030160019054906101000a900473ffffffffffffffffffffffffffffffffffffffff1691506002600088815260200190815260200160002060040160009054906101000a900473ffffffffffffffffffffffffffffffffffffffff16905091939550919395565b3373ffffffffffffffffffffffffffffffffffffffff1660008054906101000a900473ffffffffffffffffffffffffffffffffffffffff1673ffffffffffffffffffffffffffffffffffffffff161461061e57600080fd5b60008054906101000a900473ffffffffffffffffffffffffffffffffffffffff1673ffffffffffffffffffffffffffffffffffffffff16ff5b6002602052806000526040600020600091509050806000015490806001018054600181600116156101000203166002900480601f0160208091040260200160405190810160405280929190818152602001828054600181600116156101000203166002900480156107095780601f106106de57610100808354040283529160200191610709565b820191906000526020600020905b8154815290600101906020018083116106ec57829003601f168201915b5050505050908060020154908060030160009054906101000a900460ff16908060030160019054906101000a900473ffffffffffffffffffffffffffffffffffffffff16908060040160009054906101000a900473ffffffffffffffffffffffffffffffffffffffff16905086565b806000600181111561078657fe5b6002600083815260200190815260200160002060030160009054906101000a900460ff1660018111156107b557fe5b1480156108245750600073ffffffffffffffffffffffffffffffffffffffff166002600083815260200190815260200160002060040160009054906101000a900473ffffffffffffffffffffffffffffffffffffffff1673ffffffffffffffffffffffffffffffffffffffff16145b61082d57600080fd5b60026000838152602001908152602001600020600201548034101561085157600080fd5b8260011515600360009054906101000a900460ff1615151461087257600080fd5b336002600086815260200190815260200160002060040160006101000a81548173ffffffffffffffffffffffffffffffffffffffff021916908373ffffffffffffffffffffffffffffffffffffffff16021790555060006108ea60026000878152602001908152602001600020600201546014610e94565b9050600061090e600260008881526020019081526020016000206002015483610ede565b90506002600087815260200190815260200160002060030160019054906101000a900473ffffffffffffffffffffffffffffffffffffffff1673ffffffffffffffffffffffffffffffffffffffff166108fc829081150290604051600060405180830381858888f1935050505015801561098c573d6000803e3d6000fd5b5060016002600088815260200190815260200160002060030160006101000a81548160ff021916908360018111156109c057fe5b021790555060008054906101000a900473ffffffffffffffffffffffffffffffffffffffff1673ffffffffffffffffffffffffffffffffffffffff166108fc839081150290604051600060405180830381858888f19350505050158015610a2b573d6000803e3d6000fd5b507fe64ca8c671e48636f85f3008c1dd538e36bfa74fb6f2790b56b72fcc33b879ef866040518082815260200191505060405180910390a17fb976aeccefd470f33e140ba228f02888030a51b987c21807791c1770a3bb58a56002600088815260200190815260200160002060040160009054906101000a900473ffffffffffffffffffffffffffffffffffffffff16604051808273ffffffffffffffffffffffffffffffffffffffff16815260200191505060405180910390a17fc1a3dd7d3372fb5581befbfec830c5f181944d2d4a6a270427340305903f0f0b6002600088815260200190815260200160002060030160019054906101000a900473ffffffffffffffffffffffffffffffffffffffff16604051808273ffffffffffffffffffffffffffffffffffffffff16815260200191505060405180910390a15050600060026000838152602001908152602001600020600201549050600081340390506002600084815260200190815260200160002060040160009054906101000a900473ffffffffffffffffffffffffffffffffffffffff1673ffffffffffffffffffffffffffffffffffffffff166108fc829081150290604051600060405180830381858888f19350505050158015610c09573d6000803e3d6000fd5b50505050505050565b6000600154905090565b600060011515600360009054906101000a900460ff16151514610c3e57600080fd5b7f4627c48065af2a9648cbecdd4b9da340c00e501243cd49a8a71c30c987e8b7616001546040518082815260200191505060405180910390a16040518060c00160405280600154815260200184815260200183815260200160006001811115610ca357fe5b81526020013373ffffffffffffffffffffffffffffffffffffffff168152602001600073ffffffffffffffffffffffffffffffffffffffff16815250600260006001548152602001908152602001600020600082015181600001556020820151816001019080519060200190610d1a9291906110ae565b506040820151816002015560608201518160030160006101000a81548160ff02191690836001811115610d4957fe5b021790555060808201518160030160016101000a81548173ffffffffffffffffffffffffffffffffffffffff021916908373ffffffffffffffffffffffffffffffffffffffff16021790555060a08201518160040160006101000a81548173ffffffffffffffffffffffffffffffffffffffff021916908373ffffffffffffffffffffffffffffffffffffffff160217905550905050600180600082825401925050819055506001905092915050565b6000600360009054906101000a900460ff16905090565b3373ffffffffffffffffffffffffffffffffffffffff1660008054906101000a900473ffffffffffffffffffffffffffffffffffffffff1673ffffffffffffffffffffffffffffffffffffffff1614610e6857600080fd5b600360009054906101000a900460ff1615600360006101000a81548160ff021916908315150217905550565b6000610ed683836040518060400160405280601a81526020017f536166654d6174683a206469766973696f6e206279207a65726f000000000000815250610f28565b905092915050565b6000610f2083836040518060400160405280601e81526020017f536166654d6174683a207375627472616374696f6e206f766572666c6f770000815250610fee565b905092915050565b60008083118290610fd4576040517f08c379a00000000000000000000000000000000000000000000000000000000081526004018080602001828103825283818151815260200191508051906020019080838360005b83811015610f99578082015181840152602081019050610f7e565b50505050905090810190601f168015610fc65780820380516001836020036101000a031916815260200191505b509250505060405180910390fd5b506000838581610fe057fe5b049050809150509392505050565b600083831115829061109b576040517f08c379a00000000000000000000000000000000000000000000000000000000081526004018080602001828103825283818151815260200191508051906020019080838360005b83811015611060578082015181840152602081019050611045565b50505050905090810190601f16801561108d5780820380516001836020036101000a031916815260200191505b509250505060405180910390fd5b5060008385039050809150509392505050565b828054600181600116156101000203166002900490600052602060002090601f016020900481019282601f106110ef57805160ff191683800117855561111d565b8280016001018555821561111d579182015b8281111561111c578251825591602001919060010190611101565b5b50905061112a919061112e565b5090565b5b8082111561114757600081600090555060010161112f565b509056fea2646970667358221220ffdd921070157b2f8711b7b03b400662ed9dbc1a5a64e7910aa6879fd264ef9964736f6c634300060c0033",
  "immutableReferences": {},
  "source": "pragma solidity >=0.4.21 <0.7.0;\n\nimport \"./SafeMath.sol\";\n\ncontract Marketplace {\n\n  address payable owner;\n  uint productCount;\n  mapping (uint => Product) public products;\n  bool isActive = true;\n\n  struct Product {\n    uint id;\n    string name;\n    uint price;\n    State state;\n    address payable seller;\n    address payable buyer;\n  }\n\n  enum State {\n    ForSale,\n    Sold\n  }\n\n  event LogAddressSeller(address);\n  event LogAddressBuyer(address);\n  event LogForSale(uint id);\n  event LogSold(uint id);\n\n  modifier onlyOwner() {require(owner == msg.sender); _;}\n  modifier contractIsActive() { require(isActive == true); _;}\n  modifier paidEnough(uint _price) { require(msg.value >= _price); _;}\n  modifier checkValue(uint _id) {\n    _;\n    uint _price = products[_id].price;\n    uint amountToRefund = msg.value - _price;\n    products[_id].buyer.transfer(amountToRefund);\n  }\n  modifier forSale(uint _id) { require(products[_id].state == State.ForSale && products[_id].buyer == address(0)); _;}\n  modifier sold(uint _id) { require(products[_id].state == State.Sold); _;}\n\n  constructor() public {\n    owner = msg.sender;\n    productCount = 0;\n  }\n\n  function toggleCircuitBreaker() external onlyOwner() {\n      isActive = !isActive;\n  }\n\n  function kill() external onlyOwner() {\n      selfdestruct(owner);\n  }\n\n  function getCount() public view returns (uint id) {\n    return productCount;\n  }\n\n  function getContractStatus() public view returns (bool) {\n    return isActive;\n  }\n\n  function addProduct(string memory _name, uint _price) contractIsActive() public returns(bool) {\n    emit LogForSale(productCount);\n    products[productCount] = Product({name: _name, id: productCount, price: _price, state: State.ForSale, seller: msg.sender, buyer: address(0)});\n    productCount += 1;\n    return true;\n  }\n\n  using SafeMath for uint;\n\n  function buyProduct(uint id)\n    public payable forSale(id) paidEnough(products[id].price) checkValue(id) contractIsActive()\n  {\n    products[id].buyer = msg.sender;\n    uint commission = SafeMath.div(products[id].price, 20);\n    uint shareSeller = SafeMath.sub(products[id].price, commission);\n    products[id].seller.transfer(shareSeller);\n    products[id].state = State.Sold;\n    owner.transfer(commission);\n\n    emit LogSold(id);\n    emit LogAddressBuyer(products[id].buyer);\n    emit LogAddressSeller(products[id].seller);\n  }\n\n  function fetchProduct(uint _id) public view returns (string memory name, uint id, uint price, uint state, address seller, address buyer) {\n    name = products[_id].name;\n    id = products[_id].id;\n    price = products[_id].price;\n    state = uint(products[_id].state);\n    seller = products[_id].seller;\n    buyer = products[_id].buyer;\n    return (name, id, price, state, seller, buyer);\n  }\n}\n",
  "sourcePath": "/home/gerwin/code/gerwinf/simple-marketplace/contracts/Marketplace.sol",
  "compiler": {
    "name": "solc",
    "version": "0.6.12+commit.27d51765.Emscripten.clang"
  },
  "schemaVersion": "3.2.5",
  "updatedAt": "2020-12-01T13:31:42.461Z",
  "networkType": "ethereum",
  "devdoc": {
    "kind": "dev",
    "methods": {},
    "version": 1
  },
  "userdoc": {
    "kind": "user",
    "methods": {},
    "version": 1
  }
}